:100000000C9468000C9490000C9490000C94900058
:100010000C9490000C9490000C9490000C94900020
:100020000C9490000C9490000C9490000C94FF069B
:100030000C9490000C9490000C9490000C94900000
:100040000C945D060C9490000C94CD060C94A706BD
:100050000C9490000C9490000C9490000C949000E0
:100060000C9490000C9490000000000023002600E7
:10007000290000000000240027002A0000000000E2
:10008000250028002B0004040404040404040202D4
:100090000202020203030303030301020408102007
:1000A0004080010204081020010204081020000012
:1000B0000008000201000003040700000000000027
:1000C00000000A0B0C0D0E0F000102030405D607F9
:1000D00011241FBECFEFD8E0DEBFCDBF11E0A0E0FE
:1000E000B1E0E4E8F0E202C005900D92A231B10760
:1000F000D9F722E0A2E1B1E001C01D92AA3FB20708
:10010000E1F710E0C8E6D0E004C02197FE010E94AC
:100110003A10C736D107C9F70E948C080C944010DA
:100120000C940000833081F028F4813099F0823003
:10013000A9F008958730A9F08830C9F08430B1F46F
:10014000809180008F7D03C0809180008F778093A5
:100150008000089584B58F7784BD089584B58F7D20
:10016000FBCF8091B0008F778093B000089580918D
:10017000B0008F7DF9CF1F93CF93DF93282F30E00E
:10018000F901E255FF4F8491F901E656FF4FD491F2
:10019000F901EA57FF4FC491CC23A9F0162F811122
:1001A0000E949200EC2FF0E0EE0FFF1FE458FF4F8B
:1001B000A591B4918FB7F894EC91111108C0D09526
:1001C000DE23DC938FBFDF91CF911F910895DE2B4B
:1001D000F8CF682F8091DE029091DF0289130C9492
:1001E000BB000895682F8091DF020E94BB008091C0
:1001F000F6029091F7028230910538F0880F991F2E
:10020000880F991F05970197F1F7089581E00C94E5
:10021000F200CF93DF9390E0FC01E656FF4F24916C
:100220008A579F4FFC0184918823C9F090E0880F82
:10023000991FFC01EE58FF4FA591B491FC01E458C1
:10024000FF4FC591D49161110DC09FB7F8948C9167
:10025000209582238C938881282328839FBFDF9158
:10026000CF910895623051F49FB7F8943C91822F5A
:10027000809583238C93E8812E2BEFCF8FB7F89452
:10028000EC912E2B2C938FBFEACF3FB7F89480913F
:10029000CB019091CC01A091CD01B091CE0126B5BA
:1002A000A89B05C02F3F19F00196A11DB11D3FBFAE
:1002B000BA2FA92F982F8827BC01CD01620F711D7D
:1002C000811D911D42E0660F771F881F991F4A9577
:1002D000D1F708958F929F92AF92BF92CF92DF9203
:1002E000EF92FF924B015C010E9445016B017C0182
:1002F0000E9445016C197D098E099F09683E734073
:1003000081059105A8F321E0821A9108A108B1089E
:1003100088EEC80E83E0D81EE11CF11C8114910404
:10032000A104B10429F7FF90EF90DF90CF90BF9028
:10033000AF909F908F9008952FB7F8946091C70168
:100340007091C8018091C9019091CA012FBF089591
:10035000AF92BF92CF92DF92EF92FF920F931F93D3
:10036000CF93DF936C017B018B01040F151FEB0111
:100370005E01AE18BF08C017D10759F06991D601C8
:10038000ED91FC910190F081E02DC6010995892B3A
:1003900079F7C501DF91CF911F910F91FF90EF90F9
:1003A000DF90CF90BF90AF900895FC01538D448DA6
:1003B000252F30E0842F90E0821B930B541710F010
:1003C000CF96089501970895FC01918D828D98171D
:1003D00061F0A28DAE0FBF2FB11D5D968C91928DF5
:1003E0009F5F9F73928F90E008958FEF9FEF089526
:1003F000FC01918D828D981731F0828DE80FF11DEF
:10040000858D90E008958FEF9FEF0895FC01918D09
:10041000228D892F90E0805C9F4F821B91098F7302
:100420009927089587E192E00E94060221E0892B36
:1004300009F420E0822F089580E090E0892B29F0D4
:100440000E94120281110C9400000895FC01A48DF9
:10045000A80FB92FB11DA35ABF4F2C91848D90E0E6
:1004600001968F739927848FA689B7892C93A089C9
:10047000B1898C91837080648C93938D848D981353
:1004800006C00288F389E02D80818F7D80830895E6
:10049000EF92FF920F931F93CF93DF93EC0181E0D4
:1004A000888F9B8D8C8D98131AC0E889F98980817B
:1004B00085FF15C09FB7F894EE89FF896083E889AE
:1004C000F98980818370806480839FBF81E090E0A0
:1004D000DF91CF911F910F91FF90EF900895F62E2D
:1004E0000B8D10E00F5F1F4F0F731127E02E8C8DC7
:1004F0008E110CC00FB607FCFACFE889F98980810C
:1005000085FFF5CFCE010E942602F1CFEB8DEC0FD7
:10051000FD2FF11DE35AFF4FF0829FB7F8940B8F28
:10052000EA89FB8980818062CFCFCF93DF93EC0192
:10053000888D8823B9F0AA89BB89E889F9898C91CB
:1005400085FD03C0808186FD0DC00FB607FCF7CF87
:100550008C9185FFF2CF808185FFEDCFCE010E9487
:100560002602E9CFDF91CF910895CF92DF92EF92EB
:10057000FF92CF93DF93EC01603282E07807CCF5F5
:10058000653B710514F064EB70E0898128E830E088
:10059000281B310987FD3395220F331F220F331F8C
:1005A0006901330FEE08FF088A8128E532E0281B35
:1005B000310987FD3395220F331F220F331F032E7E
:1005C000000C440B550B2C193D094E095F09DB014A
:1005D00077FF02C0B0E0A0E00E94F50F24EB30E00E
:1005E00040E050E00E94CB0FC20ED31EE41EF51E69
:1005F000B601E881EC3070F5298188E890E0821B33
:10060000910927FD9395880F991F880F991F6817E7
:1006100079077CF02A8188E592E0821B910927FD09
:100620009395880F991F880F991F681779070CF405
:10063000CB010297880F991F4FB7F8942E2F30E007
:10064000F901EE0FFF1FE20FF31FEC5EFE4F9283E6
:1006500081834FBFDF91CF91FF90EF90DF90CF90DC
:100660000895DF92EF92FF920F931F93CF93DF9342
:10067000EC01D62E7A01890188818C3008F067C0A0
:1006800061E08D2D0E9409018881282F30E0F90159
:10069000EE0FFF1FE20FF31FEC5EFE4F9D2D9F73C9
:1006A0006081607C692B608320E232E02E193F0973
:1006B00037FF02C02D5F3F4F35952795359527951C
:1006C000298320E639E0201B310B37FF02C02D5F64
:1006D0003F4F35952795359527952A832CE0622F36
:1006E0000E942E10829FB001112430E020E0AB0167
:1006F000420F531FFA01EE0FFF1FE40FF51FEC5ED0
:10070000FE4F908196FD16C02F5F3F4F2C30310574
:1007100071F781110FC01092800082E080938100F8
:100720001092850010928400B19A80916F008260CF
:1007300080936F00E8818E2F90E0FC01EE0FFF1F89
:10074000E80FF91FEC5EFE4F808180648083888112
:10075000DF91CF911F910F91FF90EF90DF9008955F
:100760008EBD00000DB407FEFDCF8EB50895CF936A
:10077000DF93CFECD1E02AA13BA148A159A16EE0C3
:1007800070E089ED92E00E9431032EA13FA14CA1BF
:100790005DA16FE070E086ED92E00E9431032AA532
:1007A0003BA548A559A560E170E083ED92E00E9469
:1007B00031032EA53FA54CA55DA561E170E080ED5C
:1007C00092E00E9431032AA93BA948A959A962E1F4
:1007D00070E08DEC92E00E9431032EA93FA94CA954
:1007E0005DA963E170E08AEC92E00E9431032AADDA
:1007F0003BAD48AD59AD64E070E087EC92E00E94FB
:1008000031032EAD3FAD4CAD5DAD65E070E084ECE5
:1008100092E00E9431032091110230911202409126
:100820000F025091100266E070E081EC92E00E94AD
:10083000310320911502309116024091130250911C
:10084000140267E070E08EEB92E0DF91CF910C94A0
:100850003103FF920F931F93CF93DF930FEC11E0BF
:10086000D0E0C0E0F801F1908F01CE010E94B50FF9
:10087000F81621F06F2DCE010E94BD0F2196C834CD
:10088000D10581F78FEC91E0DF91CF911F910F910E
:10089000FF9008950F931F930091E0021091E102E1
:1008A0002091E2023091E30240E052E16AE770E019
:1008B00080E0041715072607370740F476956795FB
:1008C000579547958F5F8630A1F787E0982F906AFC
:1008D0009695809581709CBD8DBD80E01F910F9194
:1008E0000C94F200CF93C82F0E944A048C2F806290
:1008F0000E94B0038093E402CF910C940601CF9341
:10090000C82F0E944A048C2F0E94B0038093E402F7
:100910008FEF0E94B003C82F0E9406018C2FCF9149
:100920000895CF93DF93EC0187E10E947F0480FD5F
:100930000FC088818F3F51F08FEF0E947204809129
:10094000E40290E0959587958770888381E001C0E7
:1009500080E0DF91CF910895FF920F931F93CF9383
:10096000DF93C82FF62E072F142F0E944A048C2FD6
:1009700080620E94B0038093E402CF2DD02F1150EB
:1009800020F089910E94B003FACFDF91CF911F919F
:100990000F91FF900C9406010E944A0480E50E948A
:1009A000B0038093E40283E70E94B0030C94060135
:1009B000CF93DF93D82FC62F0E944A048D2F8062D9
:1009C0000E94B0038093E4028C2F0E94B003DF9159
:1009D000CF910C940601CF92DF92EF92FF920F938A
:1009E0001F93CF93DF937C01D62F8091F002C0E05C
:1009F000811106C0C091E502C61708F4DC2FCD1B9B
:100A00000E944A0480EA0E94B0038093E4028701B6
:100A1000D15030F0F80181918F010E94B003F8CFDE
:100A2000C15020F080E00E94B003FACF0E9406017E
:100A300081E00E94E9000E949C016B017C018FEF24
:100A40000E9472048091E4028073C1F40E949C01B0
:100A50006C197D098E099F09603671058105910524
:100A600070F381E08093F10280E0DF91CF911F91DC
:100A70000F91FF90EF90DF90CF90089580E00E945B
:100A8000E90060E787E00E94D8048091E40284FFD7
:100A900004C081EE0E947204E7CF81E0E6CF80E0DF
:100AA0000E94E9008091F2029091F3028230910558
:100AB00038F0880F991F880F991F05970197F1F754
:100AC0008091EE02882319F081EE0E9472046091F9
:100AD000EB026E7F6093EB0280E00E94D80482E01C
:100AE0000E947F04E8ECF0E0E49161E070E001C076
:100AF000660FEA95EAF7682B82E00C94D804EF922F
:100B0000FF920F931F93CF93DF937C01D62F809199
:100B1000F002C0E0811106C0C091E502C61708F4DA
:100B2000DC2FCD1B0E944A0481E60E94B003809313
:100B3000E4028701D15038F08FEF0E94B003F80132
:100B400081938F01F7CFC15020F08FEF0E94B00347
:100B5000FACF0E94060160E487E0DF91CF911F91F8
:100B60000F91FF90EF900C94D8046091EB0261FD1F
:100B70000AC062606093EB0280E00E94D8048BE1BF
:100B80009EE40197F1F708950E94B5056091EB028C
:100B900061606093EB0280E00E94D80460E787E028
:100BA0000E94D80481E00E94E9008091ED02882330
:100BB00039F04091EF0266EE72E08AE00C94AC04EA
:100BC00082E00E947F04E8ECF0E0E49121E030E074
:100BD00001C0220FEA95EAF72095622F682382E090
:100BE0000E94D8041092ED020895CF93DF93EC0198
:100BF00086E00E947F04877D2297E1F045E550E082
:100C000060E070E04093F2025093F3026093F402CC
:100C10007093F502C0E0C82B6C2F86E00E94D804C8
:100C200086E00E947F0491E0C81390E0892FDF9155
:100C3000CF9108954BE950E060E070E04093F202FC
:100C40005093F3026093F4027093F502C0E2E3CF95
:100C5000CF93DF93CDB7DEB728970FB6F894DEBFFA
:100C60000FBECDBF29833A834B835C836D837E8324
:100C70008F839887E3ECF0E084914091EF02BE010E
:100C80006F5F7F4F0E94AC0482E00E947F04E9EC1A
:100C9000F0E0E49161E070E001C0660FEA95EAF7E8
:100CA000682B82E00E94D80428960FB6F894DEBF25
:100CB0000FBECDBFDF91CF9108951F920F920FB657
:100CC0000F9211242F933F938F939F93AF93BF93D2
:100CD0008091C7019091C801A091C901B091CA014A
:100CE0003091C60123E0230F2D3758F50196A11D41
:100CF000B11D2093C6018093C7019093C801A093B2
:100D0000C901B093CA018091CB019091CC01A0910F
:100D1000CD01B091CE010196A11DB11D8093CB01F3
:100D20009093CC01A093CD01B093CE01BF91AF9130
:100D30009F918F913F912F910F900FBE0F901F9019
:100D4000189526E8230F0296A11DB11DD2CF1F9240
:100D50000F920FB60F9211242F933F934F935F93EF
:100D60006F937F938F939F93AF93BF93EF93FF9373
:100D700087E192E00E942602FF91EF91BF91AF912F
:100D80009F918F917F916F915F914F913F912F91A3
:100D90000F900FBE0F901F9018951F920F920FB6D5
:100DA0000F9211242F938F939F93EF93FF93E091D2
:100DB0002702F09128028081E0912D02F0912E020D
:100DC00082FD1BC09081809130028F5F8F732091D4
:100DD0003102821741F0E0913002F0E0E95EFD4F10
:100DE000958F80933002FF91EF919F918F912F917A
:100DF0000F900FBE0F901F9018958081F4CF1F9217
:100E00000F920FB60F9211242F933F934F935F933E
:100E10006F937F938F939F93AF93BF93CF93DF9302
:100E2000EF93FF9380911201C0911301D0E087FFEF
:100E300024C01092850010928400809112018F5F6F
:100E40008093120180911201082E000C990B8C17CF
:100E50009D0724F4809112018C30C4F180918400AC
:100E600090918500049680349C4908F47AC0809162
:100E7000840090918500049676C080911201082E1E
:100E8000000C990B8C179D07C4F6E09112018E2F70
:100E9000EE0F990BFC01EE0FFF1FE80FF91FEC5E40
:100EA000FE4F808186FFC9CFE09112018E2FEE0F99
:100EB000990BFC01EE0FFF1FE80FF91FEC5EFE4FD0
:100EC000808160E08F730E94BB00B7CF20918400C7
:100ED00030918500E09112018E2FEE0F990BFC01ED
:100EE000EE0FFF1FE80FF91FEC5EFE4F818192812C
:100EF000820F931F9093890080938800E0911201E4
:100F00008E2FEE0F990BFC01EE0FFF1FE80FF91F5C
:100F1000EC5EFE4F808186FF11C0E09112018E2FA2
:100F2000EE0F990BFC01EE0FFF1FE80FF91FEC5EAF
:100F3000FE4F808161E08F730E94BB00FF91EF91B3
:100F4000DF91CF91BF91AF919F918F917F916F91E1
:100F50005F914F913F912F910F900FBE0F901F9077
:100F6000189580E49CE990938900809388008FEF26
:100F700080931201E3CFFC01909113019C3098F40F
:100F800081E0890F809313019083892F90E0FC0109
:100F9000EE0FFF1FE80FF91FEC5EFE4F88EB9BE0A2
:100FA0009283818308958FEF8083089510921A02AF
:100FB0001092190288EE93E0A0E0B0E080931B024B
:100FC00090931C02A0931D02B0931E0284E091E056
:100FD000909318028093170285EC90E0909324027E
:100FE0008093230284EC90E0909326028093250264
:100FF00080EC90E0909328028093270281EC90E0AF
:1010000090932A028093290282EC90E090932C0224
:1010100080932B0286EC90E090932E0280932D0219
:10102000109230021092310210923202109233026A
:10103000A4EBB2E090E080E021E2E1E0F0E0863075
:10104000910510F4F0E0E0E0AC01425F5F4FE40F87
:10105000F51F20935700E491ED9301968930910597
:1010600061F789E08093DE028AE08093DF0280E806
:1010700096E9A8E9B0E08093E0029093E102A093A2
:10108000E202B093E30280E28093E5021092EC0268
:101090001092ED0285E08093EF0281E08093F002F0
:1010A00085E090E0A0E0B0E08093F6029093F70234
:1010B000A093F802B093F9028DEB92E09093DD02D9
:1010C0008093DC021092E60289ED92E00E94BB0759
:1010D00086ED92E00E94BB0783ED92E00E94BB0781
:1010E00080ED92E00E94BB078DEC92E00E94BB076E
:1010F0008AEC92E00E94BB0787EC92E00E94BB075B
:1011000084EC92E00E94BB0781EC92E00E94BB0756
:101110008EEB92E00C94BB07CF93DF93CDB7DEB795
:1011200061970FB6F894DEBF0FBECDBF789484B53B
:10113000826084BD84B5816084BD85B5826085BDD3
:1011400085B5816085BD80916E00816080936E0061
:101150001092810080918100826080938100809153
:101160008100816080938100809180008160809304
:1011700080008091B10084608093B1008091B000C4
:1011800081608093B00080917A00846080937A00BF
:1011900080917A00826080937A0080917A008160E9
:1011A00080937A0080917A00806880937A00109210
:1011B000C100E0912702F091280282E08083E09153
:1011C0002302F09124021082E0912502F091260280
:1011D00080E1808310922F02E0912B02F0912C028B
:1011E00086E08083E0912902F0912A02808180616B
:1011F0008083E0912902F0912A02808188608083B7
:10120000E0912902F0912A02808180688083E09138
:101210002902F0912A0280818F7D808360E084E141
:101220000E94090162E083E00E94090161E082E01E
:101230000E940901BFECEB2EB1E0FB2E10E000E0B4
:10124000C8010E94B50FD7018D937D010F5F1F4F1D
:1012500008341105A9F761E070E080E090E00E9499
:101260006A018091CF01813709F460C0EFECF1E0B1
:1012700080E2DF011D928A95E9F726E232E03093A1
:10128000F0012093EF0180E699E09093F2018093C2
:10129000F1013093F4012093F3019093F6018093D0
:1012A000F5013093F8012093F7019093FA018093B0
:1012B000F9013093FC012093FB019093FE01809390
:1012C000FD01309300022093FF019093020280936E
:1012D000010230930402209303029093060280934C
:1012E0000502309308022093070290930A0280932C
:1012F000090230930C0220930B0290930E0280930C
:101300000D023093100220930F02909312028093EB
:1013100011023093140220931302909316028093CB
:10132000150281E78093CF010E9429040E94B70330
:1013300000E910E0E4EAEE2EE0E0FE2EF0E2CF2E2F
:10134000A5E0BA2EDFB6F89480913801811125C04E
:10135000F8018491F7019491E82FF0E0EE0FFF1F60
:10136000EE58FF4FA591B4918C91982321F461E040
:101370008AE00E94BB0061E08AE00E9409018CB50E
:1013800080618CBD8CB580648CBD61E08DE00E9475
:10139000090161E08BE00E940901809138018F5FB3
:1013A00080933801DFBE8091DE028F3F09F4D8C000
:1013B0009091DF029F3F09F4D3C0891741F061E0AB
:1013C0000E94090161E08091DF020E94090180E032
:1013D0000E94E90081E00E94F20065E070E080E098
:1013E00090E00E946A016FE584E00E94D80490E0DA
:1013F00080E00E94F5058DE10E947F04D82E0E94B6
:10140000CC048DE10E947F0491E0D81290E090938B
:10141000EC02882341F0D81202C00E94CC0460E0A4
:101420008DE10E94D8041092EE0260E08CE10E94EF
:10143000D8041092F0026FE381E00E94D80463E0C8
:1014400082E00E94D804C092E50261E1D62E60914C
:10145000E5028D2D0E94D804D394F7E1DF12F7CF77
:1014600063E083E00E94D804B092EF026CE485E070
:101470000E94D80460E787E00E94D80482EE0E94B0
:10148000720481EE0E9472046CE080E00E94D80435
:1014900080E00E947F048093EB020E94B50580915A
:1014A000EB028E3009F05CC060E082E00E94BB007D
:1014B000E1EBF0E08491EDE9F0E01491E9E8F0E08F
:1014C000F490F11052C087E689878BE28A871B86E9
:1014D0001C861D861E861F86188A4091EF02BE015B
:1014E000675F7F4F8AE00E94AC044091EF02BE012B
:1014F000675F7F4F80E10E94AC0424EA32E840E05D
:1015000050E060E070E080E090E00E9428066FE626
:1015100085E00E94D80486E00E947F04682F6760FF
:1015200086E00E94D80482E090E00E94F5050E94C7
:10153000C40581E080937D010FEF80917D018130B2
:1015400009F02FC110917C01111162C0EDE5F1E0AD
:101550009FE1DF011D929A95E9F780937C01EDCF21
:1015600061E082E00E94BB00EDCE81110E949200FA
:10157000EF2DF0E0EE0FFF1FE859FF4FA591B4915A
:10158000EC91E12309F49FCF6FE381E00E94D8043E
:101590000091D6011091D70109831A831B821C8206
:1015A0001D821E821F8218864091EF02BE016F5F6E
:1015B0007F4F8AE00E94AC044091EF02BE016F5F52
:1015C0007F4F80E10E94AC048090D4019090D501BF
:1015D000940140E050E060E070E080E090E00E9424
:1015E00028066091D8016D3708F06DE785E00E940C
:1015F000D80486E00E947F04682F676086E00E941E
:10160000D80482E090E00E94F5050E94C40594CFC2
:10161000113009F0B4C00E949C0120915801C09083
:101620005901D0905A01E0905B01F0905C01AB0150
:10163000BC014C195D096E097F09483C51056105E3
:10164000710570F0822F8127809358010E949C01C0
:101650006093590170935A0180935B0190935C01F0
:101660008091580161E0811160E082E00E94BB003E
:10167000098BCE0141960E949104882309F45DCF25
:101680006FE18DE591E00E947F05809165018823DF
:1016900009F453CF80916501893708F04ECF8091CE
:1016A000630190916401892B09F447CF8091630114
:1016B000909164018091610190916201892B09F4FC
:1016C0003CCF809161019091620180915D01909188
:1016D0005E018031974208F430CF80915D01909196
:1016E0005E018091DA01811140C080915D0190918D
:1016F0005E019093D1018093D00181E08093DA0163
:1017000082E0809343018091650180934101809143
:101710006301909164019093400180933F01809117
:1017200061019091620190933E0180933D0180910F
:1017300041018093D80180913F01909140019093A5
:10174000D7018093D60180913D0190913E01909305
:10175000D5018093D4010E94290461E070E080E00B
:1017600090E00E946A0182E0F8CE8091D0019091D1
:10177000D10190933A018093390181E0C2CF61E0B9
:1017800082E00E94BB000E944F056FE189E391E077
:101790000E94EB0465E070E080E090E00E946A0146
:1017A000CCCE03E010E061E082E00E94BB0068EC78
:1017B00070E080E090E00E946A0160E082E00E94B8
:1017C000BB0068EC70E080E090E00E946A0101508C
:1017D000110949F786E4882EC12CD12C7601CA94D0
:1017E00020E0A22E20E0B22E0FEF34E0932E43E053
:1017F000742E80927C0080917A00806480937A00BD
:1018000080917A0086FDFCCF9091780080917900DC
:101810008927982789279093C5018093C4018091D7
:10182000C30181110DC18091C201811131C10E949A
:101830009C016093BE017093BF018093C00190939F
:10184000C10181E08093C2010E94C405098BCE01D1
:1018500041960E9491048823D1F16FE08FEA91E0D4
:101860000E947F058091B0018091B0018091B1010B
:101870008091B1018091B2018091B2018091B30158
:101880008091B3018091B4018091B4018091B50140
:101890008091B5018091B6018091B6018091B70128
:1018A0008091B7018091B8018091B8018091B90110
:1018B0008091B9018FE0EFEAF1E0A0EAB1E0019098
:1018C0000D928A95E1F78091A0018093C3019091D8
:1018D000AB0180919F01891708F015C18091AB0180
:1018E00080939F0160E082E00E94BB000E949C0107
:1018F00060939B0170939C0180939D0190939E0146
:101900002091A10130E0A4EBB0E00E941F10A701DC
:1019100096010E94CB0FB90189ED92E00E94B502B9
:101920002091A20130E0A4EBB0E00E941F10A701BB
:1019300096010E94CB0FB90186ED92E00E94B5029C
:101940002091A30130E0A4EBB0E00E941F10A7019A
:1019500096010E94CB0FB90183ED92E00E94B5027F
:101960002091A40130E0A4EBB0E00E941F10A70179
:1019700096010E94CB0FB90180ED92E00E94B50262
:101980002091A50130E0A4EBB0E00E941F10A70158
:1019900096010E94CB0FB9018DEC92E00E94B50236
:1019A0002091A60130E0A4EBB0E00E941F10A70137
:1019B00096010E94CB0FB9018AEC92E00E94B50219
:1019C0002091A70130E0A4EBB0E00E941F10A70116
:1019D00096010E94CB0FB90187EC92E00E94B502FC
:1019E0002091A80130E0A4EBB0E00E941F10A701F5
:1019F00096010E94CB0FB90184EC92E00E94B502DF
:101A00002091A90130E0A4EBB0E00E941F10A701D3
:101A100096010E94CB0FB90181EC92E00E94B502C1
:101A20002091AA0130E0A4EBB0E00E941F10A701B2
:101A300096010E94CB0FB9018EEB92E00E94B50295
:101A40001091C301113009F0D5C080919A01811124
:101A50008CC0E2E8F1E088E1DF011D928A95E9F7A8
:101A60000E949C0160937E0170937F0180938001AE
:101A70009093810110939A01A114B10409F4B9CE95
:101A80000E941202882309F4B4CE0E940000B1CE55
:101A90008130C1F40E949C012091BE013091BF01B0
:101AA0004091C0015091C101621B730B840B950BD7
:101AB000683E73408105910508F4C6CE0E949C01E2
:101AC00082E0C0CE823009F0BFCE0E944F0562E0B6
:101AD00084EC91E00E94EB040E949C012091BE01E5
:101AE0003091BF014091C0015091C101621B730B45
:101AF000840B950B643F71408105910508F4A4CED9
:101B00001092C201A1CE9091AB01981708F4E6CED5
:101B10000E949C0120919B0130919C0140919D016C
:101B200050919E01621B730B840B950B683E7340B2
:101B30008105910508F4E4CE1092A1011092A20152
:101B40001092A3011092A4011092A5011092A60177
:101B50001092A7011092A8011092A9011092AA0157
:101B600061E082E00E94BB00CBCE813009F084CFDF
:101B700082E08093A0010E944F056FE080EA91E02F
:101B80000E94EB0462E070E080E090E00E946A0155
:101B90000E94C405098BCE0141960E9491048823BE
:101BA00051F068E182E891E00E947F058091950103
:101BB00081117092C30162E070E080E090E00E94C9
:101BC0006A010E949C0120917E0130917F01409129
:101BD000800150918101621B730B840B950B683B54
:101BE0007B408105910508F447CF1092C301109204
:101BF0009A0142CF133009F099C12091860130E05B
:101C0000AAE3B7E00E941F10A70196010E94CB0F24
:101C10002A5D3D4F4F4F5F4F3093F0012093EF010E
:101C20002091870130E0AAE3B7E00E941F10A701CE
:101C300096010E94CB0F2A5D3D4F4F4F5F4F30936F
:101C4000F2012093F1012091880130E0AAE3B7E08E
:101C50000E941F10A70196010E94CB0F2A5D3D4FE5
:101C60004F4F5F4F3093F4012093F301209189018E
:101C700030E0AAE3B7E00E941F10A70196010E947E
:101C8000CB0F2A5D3D4F4F4F5F4F3093F6012093AE
:101C9000F50120918A0130E0AAE3B7E00E941F100D
:101CA000A70196010E94CB0F2A5D3D4F4F4F5F4F1A
:101CB0003093F8012093F70120918B0130E0AAE3E3
:101CC000B7E00E941F10A70196010E94CB0F2A5D6A
:101CD0003D4F4F4F5F4F3093FA012093F901209110
:101CE0008C0130E0AAE3B7E00E941F10A701960123
:101CF0000E94CB0F2A5D3D4F4F4F5F4F3093FC0149
:101D00002093FB0120918D0130E0AAE3B7E00E940F
:101D10001F10A70196010E94CB0F2A5D3D4F4F4F28
:101D20005F4F3093FE012093FD0120918E0130E042
:101D3000AAE3B7E00E941F10A70196010E94CB0FF3
:101D40002A5D3D4F4F4F5F4F309300022093FF01BC
:101D500020918F0130E0AAE3B7E00E941F10A70195
:101D600096010E94CB0F2A5D3D4F4F4F5F4F30933E
:101D70000202209301022091900130E0AAE3B7E033
:101D80000E941F10A70196010E94CB0F2A5D3D4FB4
:101D90004F4F5F4F30930402209303022091910133
:101DA00030E0AAE3B7E00E941F10A70196010E944D
:101DB000CB0F2A5D3D4F4F4F5F4F3093060220936C
:101DC00005022091920130E0AAE3B7E00E941F10C3
:101DD000A70196010E94CB0F2A5D3D4F4F4F5F4FE9
:101DE00030930802209307022091930130E0AAE388
:101DF000B7E00E941F10A70196010E94CB0F2A5D39
:101E00003D4F4F4F5F4F30930A02209309022091BC
:101E1000940130E0AAE3B7E00E941F10A7019601E9
:101E20000E94CB0F2A5D3D4F4F4F5F4F30930C0206
:101E300020930B022091950130E0AAE3B7E00E94C5
:101E40001F10A70196010E94CB0F2A5D3D4F4F4FF7
:101E50005F4F30930E0220930D022091960130E0E7
:101E6000AAE3B7E00E941F10A70196010E94CB0FC2
:101E70002A5D3D4F4F4F5F4F3093100220930F026A
:101E80002091970130E0AAE3B7E00E941F10A7015C
:101E900096010E94CB0F2A5D3D4F4F4F5F4F30930D
:101EA0001202209311022091980130E0AAE3B7E0DA
:101EB0000E941F10A70196010E94CB0F2A5D3D4F83
:101EC0004F4F5F4F309314022093130220919901DA
:101ED00030E0AAE3B7E00E941F10A70196010E941C
:101EE000CB0F2A5D3D4F4F4F5F4F3093160220932B
:101EF00015020E94290461E070E080E090E00E94F9
:101F00006A010E94B703909282010E944F050E94CD
:101F10009C0160937E0170937F0180938001909378
:101F2000810110929A019092C301A6CD143009F05C
:101F3000A3CD68E182E891E00E94EB040E949C013D
:101F400020917E0130917F0140918001509181016B
:101F5000621B730B840B950B683E734081059105E2
:101F600008F48ACD1092C30187CDF999FECF92BDB6
:101F700081BDF89A992780B50895262FF999FECF4B
:101F80001FBA92BD81BD20BD0FB6F894FA9AF99A96
:101F90000FBE01960895052E97FB1EF400940E9433
:101FA000E20F57FD07D00E94FD0F07FC03D04EF44F
:101FB0000C94E20F50954095309521953F4F4F4F2F
:101FC0005F4F089590958095709561957F4F8F4FE5
:101FD0009F4F08950E941F10A59F900DB49F900DD4
:101FE000A49F800D911D11240895B7FF0C94EA0F52
:101FF0000E94EA0F821B930B0895A1E21A2EAA1BDE
:10200000BB1BFD010DC0AA1FBB1FEE1FFF1FA217A8
:10201000B307E407F50720F0A21BB30BE40BF50BA5
:10202000661F771F881F991F1A9469F7609570952E
:10203000809590959B01AC01BD01CF010895A29FB1
:10204000B001B39FC001A39F700D811D1124911D8C
:10205000B29F700D811D1124911D0895991B79E087
:1020600004C0991F961708F0961B881F7A95C9F728
:1020700080950895EE0FFF1F0590F491E02D0994CF
:04208000F894FFCF02
:10208400000000004802A801D50195020602E401FF
:02209400F80151
:00000001FF
