:100000000C9468000C9490000C9490000C94900058
:100010000C9490000C9490000C9490000C94900020
:100020000C9490000C9490000C9490000C94FF069B
:100030000C9490000C9490000C9490000C94900000
:100040000C945D060C9490000C94CD060C94A706BD
:100050000C9490000C9490000C9490000C949000E0
:100060000C9490000C9490000000000023002600E7
:10007000290000000000240027002A0000000000E2
:10008000250028002B0004040404040404040202D4
:100090000202020203030303030301020408102007
:1000A0004080010204081020010204081020000012
:1000B0000008000201000003040700000000000027
:1000C00000000A0B0C0D0E0F000102030405D607F9
:1000D00011241FBECFEFD8E0DEBFCDBF11E0A0E0FE
:1000E000B1E0EEEDFFE102C005900D92A231B10743
:1000F000D9F722E0A2E1B1E001C01D92AF3EB20704
:10010000E1F710E0C8E6D0E004C02197FE010E94AC
:10011000E70FC736D107C9F70E948C080C94ED0F82
:100120000C940000833081F028F4813099F0823003
:10013000A9F008958730A9F08830C9F08430B1F46F
:10014000809180008F7D03C0809180008F778093A5
:100150008000089584B58F7784BD089584B58F7D20
:10016000FBCF8091B0008F778093B000089580918D
:10017000B0008F7DF9CF1F93CF93DF93282F30E00E
:10018000F901E255FF4F8491F901E656FF4FD491F2
:10019000F901EA57FF4FC491CC23A9F0162F811122
:1001A0000E949200EC2FF0E0EE0FFF1FE458FF4F8B
:1001B000A591B4918FB7F894EC91111108C0D09526
:1001C000DE23DC938FBFDF91CF911F910895DE2B4B
:1001D000F8CF682F8091D3029091D40289130C94A8
:1001E000BB000895682F8091D4020E94BB008091CB
:1001F000EB029091EC028230910538F0880F991F44
:10020000880F991F05970197F1F7089581E00C94E5
:10021000F200CF93DF9390E0FC01E656FF4F24916C
:100220008A579F4FFC0184918823C9F090E0880F82
:10023000991FFC01EE58FF4FA591B491FC01E458C1
:10024000FF4FC591D49161110DC09FB7F8948C9167
:10025000209582238C938881282328839FBFDF9158
:10026000CF910895623051F49FB7F8943C91822F5A
:10027000809583238C93E8812E2BEFCF8FB7F89452
:10028000EC912E2B2C938FBFEACF3FB7F89480913F
:10029000C0019091C101A091C201B091C30126B5E6
:1002A000A89B05C02F3F19F00196A11DB11D3FBFAE
:1002B000BA2FA92F982F8827BC01CD01620F711D7D
:1002C000811D911D42E0660F771F881F991F4A9577
:1002D000D1F708958F929F92AF92BF92CF92DF9203
:1002E000EF92FF924B015C010E9445016B017C0182
:1002F0000E9445016C197D098E099F09683E734073
:1003000081059105A8F321E0821A9108A108B1089E
:1003100088EEC80E83E0D81EE11CF11C8114910404
:10032000A104B10429F7FF90EF90DF90CF90BF9028
:10033000AF909F908F9008952FB7F8946091BC0173
:100340007091BD018091BE019091BF012FBF0895B2
:10035000AF92BF92CF92DF92EF92FF920F931F93D3
:10036000CF93DF936C017B018B01040F151FEB0111
:100370005E01AE18BF08C017D10759F06991D601C8
:10038000ED91FC910190F081E02DC6010995892B3A
:1003900079F7C501DF91CF911F910F91FF90EF90F9
:1003A000DF90CF90BF90AF900895FC01538D448DA6
:1003B000252F30E0842F90E0821B930B541710F010
:1003C000CF96089501970895FC01918D828D98171D
:1003D00061F0A28DAE0FBF2FB11D5D968C91928DF5
:1003E0009F5F9F73928F90E008958FEF9FEF089526
:1003F000FC01918D828D981731F0828DE80FF11DEF
:10040000858D90E008958FEF9FEF0895FC01918D09
:10041000228D892F90E0805C9F4F821B91098F7302
:10042000992708958CE092E00E94060221E0892B32
:1004300009F420E0822F089580E090E0892B29F0D4
:100440000E94120281110C9400000895FC01A48DF9
:10045000A80FB92FB11DA35ABF4F2C91848D90E0E6
:1004600001968F739927848FA689B7892C93A089C9
:10047000B1898C91837080648C93938D848D981353
:1004800006C00288F389E02D80818F7D80830895E6
:10049000EF92FF920F931F93CF93DF93EC0181E0D4
:1004A000888F9B8D8C8D98131AC0E889F98980817B
:1004B00085FF15C09FB7F894EE89FF896083E889AE
:1004C000F98980818370806480839FBF81E090E0A0
:1004D000DF91CF911F910F91FF90EF900895F62E2D
:1004E0000B8D10E00F5F1F4F0F731127E02E8C8DC7
:1004F0008E110CC00FB607FCFACFE889F98980810C
:1005000085FFF5CFCE010E942602F1CFEB8DEC0FD7
:10051000FD2FF11DE35AFF4FF0829FB7F8940B8F28
:10052000EA89FB8980818062CFCFCF93DF93EC0192
:10053000888D8823B9F0AA89BB89E889F9898C91CB
:1005400085FD03C0808186FD0DC00FB607FCF7CF87
:100550008C9185FFF2CF808185FFEDCFCE010E9487
:100560002602E9CFDF91CF910895CF92DF92EF92EB
:10057000FF92CF93DF93EC01603282E07807CCF5F5
:10058000653B710514F064EB70E0898128E830E088
:10059000281B310987FD3395220F331F220F331F8C
:1005A0006901330FEE08FF088A8128E532E0281B35
:1005B000310987FD3395220F331F220F331F032E7E
:1005C000000C440B550B2C193D094E095F09DB014A
:1005D00077FF02C0B0E0A0E00E94A20F24EB30E061
:1005E00040E050E00E94780FC20ED31EE41EF51EBC
:1005F000B601E881EC3070F5298188E890E0821B33
:10060000910927FD9395880F991F880F991F6817E7
:1006100079077CF02A8188E592E0821B910927FD09
:100620009395880F991F880F991F681779070CF405
:10063000CB010297880F991F4FB7F8942E2F30E007
:10064000F901EE0FFF1FE20FF31FEC5EFE4F9283E6
:1006500081834FBFDF91CF91FF90EF90DF90CF90DC
:100660000895DF92EF92FF920F931F93CF93DF9342
:10067000EC01D62E7A01890188818C3008F067C0A0
:1006800061E08D2D0E9409018881282F30E0F90159
:10069000EE0FFF1FE20FF31FEC5EFE4F9D2D9F73C9
:1006A0006081607C692B608320E232E02E193F0973
:1006B00037FF02C02D5F3F4F35952795359527951C
:1006C000298320E639E0201B310B37FF02C02D5F64
:1006D0003F4F35952795359527952A832CE0622F36
:1006E0000E94DB0F829FB001112430E020E0AB01BB
:1006F000420F531FFA01EE0FFF1FE40FF51FEC5ED0
:10070000FE4F908196FD16C02F5F3F4F2C30310574
:1007100071F781110FC01092800082E080938100F8
:100720001092850010928400B19A80916F008260CF
:1007300080936F00E8818E2F90E0FC01EE0FFF1F89
:10074000E80FF91FEC5EFE4F808180648083888112
:10075000DF91CF911F910F91FF90EF90DF9008955F
:100760008EBD00000DB407FEFDCF8EB50895CF936A
:10077000DF93C4ECD1E02AA13BA148A159A16EE0CE
:1007800070E08EEC92E00E9431032EA13FA14CA1BB
:100790005DA16FE070E08BEC92E00E9431032AA52E
:1007A0003BA548A559A560E170E088EC92E00E9465
:1007B00031032EA53FA54CA55DA561E170E085EC58
:1007C00092E00E9431032AA93BA948A959A962E1F4
:1007D00070E082EC92E00E9431032EA93FA94CA95F
:1007E0005DA963E170E08FEB92E00E9431032AADD6
:1007F0003BAD48AD59AD64E070E08CEB92E00E94F7
:1008000031032EAD3FAD4CAD5DAD65E070E089EBE1
:1008100092E00E943103209106023091070240913C
:1008200004025091050266E070E086EB92E00E94BF
:10083000310320910A0230910B024091080250913D
:10084000090267E070E083EB92E0DF91CF910C94B6
:100850003103FF920F931F93CF93DF9304EC11E0CA
:10086000D0E0C0E0F801F1908F01CE010E94620F4C
:10087000F81621F06F2DCE010E946A0F2196C83420
:10088000D10581F784EC91E0DF91CF911F910F9119
:10089000FF9008950F931F930091D5021091D602F7
:1008A0002091D7023091D80240E052E16AE770E02F
:1008B00080E0041715072607370740F476956795FB
:1008C000579547958F5F8630A1F787E0982F906AFC
:1008D0009695809581709CBD8DBD80E01F910F9194
:1008E0000C94F200CF93C82F0E944A048C2F806290
:1008F0000E94B0038093D902CF910C940601CF934C
:10090000C82F0E944A048C2F0E94B0038093D90202
:100910008FEF0E94B003C82F0E9406018C2FCF9149
:100920000895CF93DF93EC0187E10E947F0480FD5F
:100930000FC088818F3F51F08FEF0E947204809129
:10094000D90290E0959587958770888381E001C0F2
:1009500080E0DF91CF910895FF920F931F93CF9383
:10096000DF93C82FF62E072F142F0E944A048C2FD6
:1009700080620E94B0038093D902CF2DD02F1150F6
:1009800020F089910E94B003FACFDF91CF911F919F
:100990000F91FF900C9406010E944A0480E50E948A
:1009A000B0038093D90283E70E94B0030C94060140
:1009B000CF93DF93D82FC62F0E944A048D2F8062D9
:1009C0000E94B0038093D9028C2F0E94B003DF9164
:1009D000CF910C940601CF92DF92EF92FF920F938A
:1009E0001F93CF93DF937C01D62F8091E502C0E067
:1009F000811106C0C091DA02C61708F4DC2FCD1BA6
:100A00000E944A0480EA0E94B0038093D9028701C1
:100A1000D15030F0F80181918F010E94B003F8CFDE
:100A2000C15020F080E00E94B003FACF0E9406017E
:100A300081E00E94E9000E949C016B017C018FEF24
:100A40000E9472048091D9028073C1F40E949C01BB
:100A50006C197D098E099F09603671058105910524
:100A600070F381E08093E60280E0DF91CF911F91E7
:100A70000F91FF90EF90DF90CF90089580E00E945B
:100A8000E90060E787E00E94D8048091D90284FFE2
:100A900004C081EE0E947204E7CF81E0E6CF80E0DF
:100AA0000E94E9008091E7029091E802823091056E
:100AB00038F0880F991F880F991F05970197F1F754
:100AC0008091E302882319F081EE0E947204609104
:100AD000E0026E7F6093E00280E00E94D80482E032
:100AE0000E947F04E8ECF0E0E49161E070E001C076
:100AF000660FEA95EAF7682B82E00C94D804EF922F
:100B0000FF920F931F93CF93DF937C01D62F809199
:100B1000E502C0E0811106C0C091DA02C61708F4F0
:100B2000DC2FCD1B0E944A0481E60E94B003809313
:100B3000D9028701D15038F08FEF0E94B003F8013D
:100B400081938F01F7CFC15020F08FEF0E94B00347
:100B5000FACF0E94060160E487E0DF91CF911F91F8
:100B60000F91FF90EF900C94D8046091E00261FD2A
:100B70000AC062606093E00280E00E94D8048BE1CA
:100B80009EE40197F1F708950E94B5056091E00297
:100B900061606093E00280E00E94D80460E787E033
:100BA0000E94D80481E00E94E9008091E20288233B
:100BB00039F04091E4026BED72E08AE00C94AC04F1
:100BC00082E00E947F04E8ECF0E0E49121E030E074
:100BD00001C0220FEA95EAF72095622F682382E090
:100BE0000E94D8041092E2020895CF93DF93EC01A3
:100BF00086E00E947F04877D2297E1F045E550E082
:100C000060E070E04093E7025093E8026093E902ED
:100C10007093EA02C0E0C82B6C2F86E00E94D804D3
:100C200086E00E947F0491E0C81390E0892FDF9155
:100C3000CF9108954BE950E060E070E04093E70207
:100C40005093E8026093E9027093EA02C0E2E3CFB6
:100C5000CF93DF93CDB7DEB728970FB6F894DEBFFA
:100C60000FBECDBF29833A834B835C836D837E8324
:100C70008F839887E3ECF0E084914091E402BE0119
:100C80006F5F7F4F0E94AC0482E00E947F04E9EC1A
:100C9000F0E0E49161E070E001C0660FEA95EAF7E8
:100CA000682B82E00E94D80428960FB6F894DEBF25
:100CB0000FBECDBFDF91CF9108951F920F920FB657
:100CC0000F9211242F933F938F939F93AF93BF93D2
:100CD0008091BC019091BD01A091BE01B091BF0176
:100CE0003091BB0123E0230F2D3758F50196A11D4C
:100CF000B11D2093BB018093BC019093BD01A093D3
:100D0000BE01B093BF018091C0019091C101A0913B
:100D1000C201B091C3010196A11DB11D8093C00114
:100D20009093C101A093C201B093C301BF91AF9151
:100D30009F918F913F912F910F900FBE0F901F9019
:100D4000189526E8230F0296A11DB11DD2CF1F9240
:100D50000F920FB60F9211242F933F934F935F93EF
:100D60006F937F938F939F93AF93BF93EF93FF9373
:100D70008CE092E00E942602FF91EF91BF91AF912B
:100D80009F918F917F916F915F914F913F912F91A3
:100D90000F900FBE0F901F9018951F920F920FB6D5
:100DA0000F9211242F938F939F93EF93FF93E091D2
:100DB0001C02F0911D028081E0912202F091230239
:100DC00082FD1BC09081809125028F5F8F732091DF
:100DD0002602821741F0E0912502F0E0E45FFD4F2A
:100DE000958F80932502FF91EF919F918F912F9185
:100DF0000F900FBE0F901F9018958081F4CF1F9217
:100E00000F920FB60F9211242F933F934F935F933E
:100E10006F937F938F939F93AF93BF93CF93DF9302
:100E2000EF93FF9380911201C0911301D0E087FFEF
:100E300024C01092850010928400809112018F5F6F
:100E40008093120180911201082E000C990B8C17CF
:100E50009D0724F4809112018C30C4F180918400AC
:100E600090918500049680349C4908F47AC0809162
:100E7000840090918500049676C080911201082E1E
:100E8000000C990B8C179D07C4F6E09112018E2F70
:100E9000EE0F990BFC01EE0FFF1FE80FF91FEC5E40
:100EA000FE4F808186FFC9CFE09112018E2FEE0F99
:100EB000990BFC01EE0FFF1FE80FF91FEC5EFE4FD0
:100EC000808160E08F730E94BB00B7CF20918400C7
:100ED00030918500E09112018E2FEE0F990BFC01ED
:100EE000EE0FFF1FE80FF91FEC5EFE4F818192812C
:100EF000820F931F9093890080938800E0911201E4
:100F00008E2FEE0F990BFC01EE0FFF1FE80FF91F5C
:100F1000EC5EFE4F808186FF11C0E09112018E2FA2
:100F2000EE0F990BFC01EE0FFF1FE80FF91FEC5EAF
:100F3000FE4F808161E08F730E94BB00FF91EF91B3
:100F4000DF91CF91BF91AF919F918F917F916F91E1
:100F50005F914F913F912F910F900FBE0F901F9077
:100F6000189580E49CE990938900809388008FEF26
:100F700080931201E3CFFC01909113019C3098F40F
:100F800081E0890F809313019083892F90E0FC0109
:100F9000EE0FFF1FE80FF91FEC5EFE4F88EB9BE0A2
:100FA0009283818308958FEF8083089510920F02BA
:100FB00010920E0288EE93E0A0E0B0E08093100261
:100FC00090931102A0931202B093130284E091E077
:100FD00090930D0280930C0285EC90E0909319029F
:100FE0008093180284EC90E090931B0280931A0285
:100FF00080EC90E090931D0280931C0281EC90E0C5
:1010000090931F0280931E0282EC90E09093210245
:101010008093200286EC90E090932302809322023A
:101020001092250210922602109227021092280296
:10103000A9EAB2E090E080E021E2E1E0F0E0863071
:10104000910510F4F0E0E0E0AC01425F5F4FE40F87
:10105000F51F20935700E491ED9301968930910597
:1010600061F789E08093D3028AE08093D40280E81C
:1010700096E9A8E9B0E08093D5029093D602A093B8
:10108000D702B093D80280E28093DA021092E10294
:101090001092E20285E08093E40281E08093E50211
:1010A00085E090E0A0E0B0E08093EB029093EC024A
:1010B000A093ED02B093EE0282EB92E09093D20205
:1010C0008093D1021092DB028EEC92E00E94BB076B
:1010D0008BEC92E00E94BB0788EC92E00E94BB0779
:1010E00085EC92E00E94BB0782EC92E00E94BB0775
:1010F0008FEB92E00E94BB078CEB92E00E94BB0753
:1011000089EB92E00E94BB0786EB92E00E94BB074E
:1011100083EB92E00C94BB07CF93DF93CDB7DEB7A0
:1011200061970FB6F894DEBF0FBECDBF789484B53B
:10113000826084BD84B5816084BD85B5826085BDD3
:1011400085B5816085BD80916E00816080936E0061
:101150001092810080918100826080938100809153
:101160008100816080938100809180008160809304
:1011700080008091B10084608093B1008091B000C4
:1011800081608093B00080917A00846080937A00BF
:1011900080917A00826080937A0080917A008160E9
:1011A00080937A0080917A00806880937A00109210
:1011B000C100E0911C02F0911D0282E08083E09169
:1011C0001802F09119021082E0911A02F0911B02AC
:1011D00080E1808310922402E0912002F0912102AC
:1011E00086E08083E0911E02F0911F028081806181
:1011F0008083E0911E02F0911F02808188608083CD
:10120000E0911E02F0911F02808180688083E0914E
:101210001E02F0911F0280818F7D808360E084E157
:101220000E94090162E083E00E94090161E082E01E
:101230000E940901B4ECEB2EB1E0FB2E10E000E0BF
:10124000C8010E94620FD7018D937D010F5F1F4F70
:1012500008341105A9F761E070E080E090E00E9499
:101260006A018091C401813709F460C0E4ECF1E0C7
:1012700080E2DF011D928A95E9F726E232E03093A1
:10128000E5012093E40180E699E09093E7018093E3
:10129000E6013093E9012093E8019093EB018093FC
:1012A000EA013093ED012093EC019093EF018093DC
:1012B000EE013093F1012093F0019093F3018093BC
:1012C000F2013093F5012093F4019093F70180939C
:1012D000F6013093F9012093F8019093FB0180937C
:1012E000FA013093FD012093FC019093FF0180935C
:1012F000FE01309301022093000290930302809339
:101300000202309305022093040290930702809317
:101310000602309309022093080290930B028093F7
:101320000A0281E78093C4010E9429040E94B70346
:1013300000E910E0E4EAEE2EE0E0FE2EF0E2CF2E2F
:10134000A5E0BA2EDFB6F89480913801811125C04E
:10135000F8018491F7019491E82FF0E0EE0FFF1F60
:10136000EE58FF4FA591B4918C91982321F461E040
:101370008AE00E94BB0061E08AE00E9409018CB50E
:1013800080618CBD8CB580648CBD61E08DE00E9475
:10139000090161E08BE00E940901809138018F5FB3
:1013A00080933801DFBE8091D3028F3F09F4D8C00B
:1013B0009091D4029F3F09F4D3C0891741F061E0B6
:1013C0000E94090161E08091D4020E94090180E03D
:1013D0000E94E90081E00E94F20065E070E080E098
:1013E00090E00E946A016FE584E00E94D80490E0DA
:1013F00080E00E94F5058DE10E947F04D82E0E94B6
:10140000CC048DE10E947F0491E0D81290E090938B
:10141000E102882341F0D81202C00E94CC0460E0AF
:101420008DE10E94D8041092E30260E08CE10E94FA
:10143000D8041092E5026FE381E00E94D80463E0D3
:1014400082E00E94D804C092DA0261E1D62E609157
:10145000DA028D2D0E94D804D394F7E1DF12F7CF82
:1014600063E083E00E94D804B092E4026CE485E07B
:101470000E94D80460E787E00E94D80482EE0E94B0
:10148000720481EE0E9472046CE080E00E94D80435
:1014900080E00E947F048093E0020E94B505809165
:1014A000E0028E3009F05CC060E082E00E94BB0088
:1014B000E1EBF0E08491EDE9F0E01491E9E8F0E08F
:1014C000F490F11052C087E689878BE28A871B86E9
:1014D0001C861D861E861F86188A4091E402BE0166
:1014E000675F7F4F8AE00E94AC044091E402BE0136
:1014F000675F7F4F80E10E94AC0424EA32E840E05D
:1015000050E060E070E080E090E00E9428066FE626
:1015100085E00E94D80486E00E947F04682F6760FF
:1015200086E00E94D80482E090E00E94F5050E94C7
:10153000C40581E080937D010FEF80917D018130B2
:1015400009F024C110917C01111162C0EDE5F1E0B8
:101550009FE1DF011D929A95E9F780937C01EDCF21
:1015600061E082E00E94BB00EDCE81110E949200FA
:10157000EF2DF0E0EE0FFF1FE859FF4FA591B4915A
:10158000EC91E12309F49FCF6FE381E00E94D8043E
:101590000091CB011091CC0109831A831B821C821C
:1015A0001D821E821F8218864091E402BE016F5F79
:1015B0007F4F8AE00E94AC044091E402BE016F5F5D
:1015C0007F4F80E10E94AC048090C9019090CA01D5
:1015D000940140E050E060E070E080E090E00E9424
:1015E00028066091CD016D3708F06DE785E00E9417
:1015F000D80486E00E947F04682F676086E00E941E
:10160000D80482E090E00E94F5050E94C40594CFC2
:10161000113009F0A9C00E949C0120915801C0908E
:101620005901D0905A01E0905B01F0905C01AB0150
:10163000BC014C195D096E097F09483C51056105E3
:10164000710570F0822F8127809358010E949C01C0
:101650006093590170935A0180935B0190935C01F0
:101660008091580161E0811160E082E00E94BB003E
:10167000098BCE0141960E949104882309F45DCF25
:101680006FE18DE591E00E947F05809165018823DF
:1016900009F453CF80916501893708F04ECF8091CE
:1016A000630190916401892B09F447CF8091630114
:1016B000909164018091610190916201892B09F4FC
:1016C0003CCF809161019091620180915D01909188
:1016D0005E018031974208F430CF80915D01909196
:1016E0005E018091CF0181113DC080915D0190919B
:1016F0005E019093C6018093C50182E08093CF0183
:101700008091650180934101809163019091640112
:101710009093400180933F0180916101909162011B
:1017200090933E0180933D01809141018093CD01D2
:1017300080913F01909140019093CC018093CB0127
:1017400080913D0190913E019093CA018093C9011F
:101750000E94290461E070E080E090E00E946A014C
:1017600082E0FBCE81E0CACF61E082E00E94BB0054
:101770000E944F056FE189E391E00E94EB0465E070
:1017800070E080E090E00E946A01D7CE03E010E0B4
:1017900061E082E00E94BB0068EC70E080E090E0D5
:1017A0000E946A0160E082E00E94BB0068EC70E089
:1017B00080E090E00E946A010150110949F7C12CB4
:1017C000D12C7601CA940FEF8824839434E0932EB1
:1017D00043E0742E90E0A92E90E0B92E86E4682EA6
:1017E00060927C0080917A00806480937A0080917E
:1017F0007A0086FDFCCF909178008091790089274E
:10180000982789279093BA018093B9018091B801F4
:101810008111F3C08091B701811117C10E949C0111
:101820006093B3017093B4018093B5019093B601B6
:101830008092B7010E94C405098BCE0141960E9497
:1018400091048823D1F16CE087EA91E00E947F0542
:101850008091A8018091A8018091A9018091A9019E
:101860008091AA018091AA018091AB018091AB0186
:101870008091AC018091AC018091AD018091AD016E
:101880008091AE018091AE018091AF018091AF0156
:101890008091B0018091B0018091B1018091B1013E
:1018A0008CE0E7EAF1E0ABE9B1E001900D928A95B6
:1018B000E1F780919B018093B80120919C0130E079
:1018C000A4EBB0E00E94CC0FA70196010E94780F14
:1018D000B9018EEC92E00E94B50220919D0130E0AA
:1018E000A4EBB0E00E94CC0FA70196010E94780FF4
:1018F000B9018BEC92E00E94B50220919E0130E08C
:10190000A4EBB0E00E94CC0FA70196010E94780FD3
:10191000B90188EC92E00E94B50220919F0130E06D
:10192000A4EBB0E00E94CC0FA70196010E94780FB3
:10193000B90185EC92E00E94B5022091A00130E04F
:10194000A4EBB0E00E94CC0FA70196010E94780F93
:10195000B90182EC92E00E94B5022091A10130E031
:10196000A4EBB0E00E94CC0FA70196010E94780F73
:10197000B9018FEB92E00E94B5022091A20130E004
:10198000A4EBB0E00E94CC0FA70196010E94780F53
:10199000B9018CEB92E00E94B5022091A30130E0E6
:1019A000A4EBB0E00E94CC0FA70196010E94780F33
:1019B000B90189EB92E00E94B5022091A40130E0C8
:1019C000A4EBB0E00E94CC0FA70196010E94780F13
:1019D000B90186EB92E00E94B5022091A50130E0AA
:1019E000A4EBB0E00E94CC0FA70196010E94780FF3
:1019F000B90183EB92E00E94B5021091B801113059
:101A000009F0A5C080919A0181115CC0E2E8F1E083
:101A100088E1DF011D928A95E9F70E949C0160939D
:101A20007E0170937F0180938001909381011093D8
:101A30009A01A114B10409F4D3CE0E9412028823A2
:101A400009F4CCCE0E940000C5CE8130D1F40E94B2
:101A50009C012091B3013091B4014091B5015091A6
:101A6000B601621B730B840B950B683E73408105B6
:101A7000910508F4DFCE0E949C0182E08093B701BB
:101A8000D9CE823009F0D6CE0E944F0562E089EBB4
:101A900091E00E94EB040E949C012091B3013091DF
:101AA000B4014091B5015091B601621B730B840BD8
:101AB000950B643F71408105910508F4BBCE1092EF
:101AC000B701B8CE813009F0B4CF82E080939B019A
:101AD0000E944F056CE08BE991E00E94EB0462E00C
:101AE00070E080E090E00E946A010E94C405098BCA
:101AF000CE0141960E949104882351F068E182E86A
:101B000091E00E947F058091950181117092B8014A
:101B100062E070E080E090E00E946A010E949C0117
:101B200020917E0130917F0140918001509181018F
:101B3000621B730B840B950B683B7B408105910501
:101B400008F477CF1092B80110929A0172CF133037
:101B500009F099C12091860130E0AAE3B7E00E9424
:101B6000CC0FA70196010E94780F2A5D3D4F4F4F81
:101B70005F4F3093E5012093E4012091870130E02D
:101B8000AAE3B7E00E94CC0FA70196010E94780F4C
:101B90002A5D3D4F4F4F5F4F3093E7012093E601A1
:101BA0002091880130E0AAE3B7E00E94CC0FA701A2
:101BB00096010E94780F2A5D3D4F4F4F5F4F309343
:101BC000E9012093E8012091890130E0AAE3B7E020
:101BD0000E94CC0FA70196010E94780F2A5D3D4F0D
:101BE0004F4F5F4F3093EB012093EA0120918A0120
:101BF00030E0AAE3B7E00E94CC0FA70196010E9453
:101C0000780F2A5D3D4F4F4F5F4F3093ED0120938A
:101C1000EC0120918B0130E0AAE3B7E00E94CC0FE9
:101C2000A70196010E94780F2A5D3D4F4F4F5F4FED
:101C30003093EF012093EE0120918C0130E0AAE374
:101C4000B7E00E94CC0FA70196010E94780F2A5D91
:101C50003D4F4F4F5F4F3093F1012093F0012091A2
:101C60008D0130E0AAE3B7E00E94CC0FA7019601F6
:101C70000E94780F2A5D3D4F4F4F5F4F3093F30125
:101C80002093F20120918E0130E0AAE3B7E00E9498
:101C9000CC0FA70196010E94780F2A5D3D4F4F4F50
:101CA0005F4F3093F5012093F40120918F0130E0D4
:101CB000AAE3B7E00E94CC0FA70196010E94780F1B
:101CC0002A5D3D4F4F4F5F4F3093F7012093F60150
:101CD0002091900130E0AAE3B7E00E94CC0FA70169
:101CE00096010E94780F2A5D3D4F4F4F5F4F309312
:101CF000F9012093F8012091910130E0AAE3B7E0C7
:101D00000E94CC0FA70196010E94780F2A5D3D4FDB
:101D10004F4F5F4F3093FB012093FA0120919201C6
:101D200030E0AAE3B7E00E94CC0FA70196010E9421
:101D3000780F2A5D3D4F4F4F5F4F3093FD01209349
:101D4000FC012091930130E0AAE3B7E00E94CC0FA0
:101D5000A70196010E94780F2A5D3D4F4F4F5F4FBC
:101D60003093FF012093FE012091940130E0AAE31B
:101D7000B7E00E94CC0FA70196010E94780F2A5D60
:101D80003D4F4F4F5F4F309301022093000220914F
:101D9000950130E0AAE3B7E00E94CC0FA7019601BD
:101DA0000E94780F2A5D3D4F4F4F5F4F30930302E3
:101DB000209302022091960130E0AAE3B7E00E944E
:101DC000CC0FA70196010E94780F2A5D3D4F4F4F1F
:101DD0005F4F30930502209304022091970130E079
:101DE000AAE3B7E00E94CC0FA70196010E94780FEA
:101DF0002A5D3D4F4F4F5F4F3093070220930602FD
:101E00002091980130E0AAE3B7E00E94CC0FA7012F
:101E100096010E94780F2A5D3D4F4F4F5F4F3093E0
:101E20000902209308022091990130E0AAE3B7E06B
:101E30000E94CC0FA70196010E94780F2A5D3D4FAA
:101E40004F4F5F4F30930B0220930A020E942904E8
:101E500061E070E080E090E00E946A010E94B703B8
:101E6000909282010E944F050E949C0160937E0126
:101E700070937F01809380019093810110929A0169
:101E80009092B801D6CD143009F0D3CD68E182E844
:101E900091E00E94EB040E949C0120917E01309110
:101EA0007F014091800150918101621B730B840B73
:101EB000950B683E73408105910508F4BACD1092E8
:101EC000B801B7CDF999FECF92BD81BDF89A992797
:101ED00080B50895262FF999FECF1FBA92BD81BD16
:101EE00020BD0FB6F894FA9AF99A0FBE019608959C
:101EF000052E97FB1EF400940E948F0F57FD07D00C
:101F00000E94AA0F07FC03D04EF40C948F0F50953B
:101F10004095309521953F4F4F4F5F4F08959095D5
:101F20008095709561957F4F8F4F9F4F08950E94C8
:101F3000CC0FA59F900DB49F900DA49F800D911D77
:101F400011240895B7FF0C94970F0E94970F821BDE
:101F5000930B0895A1E21A2EAA1BBB1BFD010DC015
:101F6000AA1FBB1FEE1FFF1FA217B307E407F50749
:101F700020F0A21BB30BE40BF50B661F771F881F25
:101F8000991F1A9469F760957095809590959B01BB
:101F9000AC01BD01CF010895A29FB001B39FC00164
:101FA000A39F700D811D1124911DB29F700D811D85
:101FB0001124911D0895991B79E004C0991F96176B
:101FC00008F0961B881F7A95C9F780950895EE0F43
:0E1FD000FF1F0590F491E02D0994F894FFCFC7
:101FDE00000000004802A801D50195020602E401A6
:021FEE00F801F8
:00000001FF
