:100000000C9468000C9490000C9490000C94900058
:100010000C9490000C9490000C9490000C94900020
:100020000C9490000C9490000C9490000C94040795
:100030000C9490000C9490000C9490000C94900000
:100040000C9462060C9490000C94D2060C94AC06AE
:100050000C9490000C9490000C9490000C949000E0
:100060000C9490000C9490000000000023002600E7
:10007000290000000000240027002A0000000000E2
:10008000250028002B0004040404040404040202D4
:100090000202020203030303030301020408102007
:1000A0004080010204081020010204081020000012
:1000B0000008000201000003040700000000000027
:1000C00000000A0B0C0D0E0F000102030405DB07F4
:1000D00011241FBECFEFD8E0DEBFCDBF11E0A0E0FE
:1000E000B1E0EEEDFEE102C005900D92A231B10744
:1000F000D9F722E0A2E1B1E001C01D92A13DB20713
:10010000E1F710E0C8E6D0E004C02197FE010E94AC
:10011000670FC736D107C9F70E9491080C946D0F7D
:100120000C940000833081F028F4813099F0823003
:10013000A9F008958730A9F08830C9F08430B1F46F
:10014000809180008F7D03C0809180008F778093A5
:100150008000089584B58F7784BD089584B58F7D20
:10016000FBCF8091B0008F778093B000089580918D
:10017000B0008F7DF9CF1F93CF93DF93282F30E00E
:10018000F901E255FF4F8491F901E656FF4FD491F2
:10019000F901EA57FF4FC491CC23A9F0162F811122
:1001A0000E949200EC2FF0E0EE0FFF1FE458FF4F8B
:1001B000A591B4918FB7F894EC91111108C0D09526
:1001C000DE23DC938FBFDF91CF911F910895DE2B4B
:1001D000F8CF682F8091B5029091B60289130C94E4
:1001E000BB000895682F8091B6020E94BB008091E9
:1001F000CD029091CE028230910538F0880F991F80
:10020000880F991F05970197F1F7089581E00C94E5
:10021000F200CF93DF9390E0FC01E656FF4F24916C
:100220008A579F4FFC0184918823C9F090E0880F82
:10023000991FFC01EE58FF4FA591B491FC01E458C1
:10024000FF4FC591D49161110DC09FB7F8948C9167
:10025000209582238C938881282328839FBFDF9158
:10026000CF910895623051F49FB7F8943C91822F5A
:10027000809583238C93E8812E2BEFCF8FB7F89452
:10028000EC912E2B2C938FBFEACF3FB7F89480913F
:10029000B6019091B701A091B801B091B90126B50E
:1002A000A89B05C02F3F19F00196A11DB11D3FBFAE
:1002B000BA2FA92F982F8827BC01CD01620F711D7D
:1002C000811D911D42E0660F771F881F991F4A9577
:1002D000D1F708958F929F92AF92BF92CF92DF9203
:1002E000EF92FF924B015C010E9445016B017C0182
:1002F0000E9445016C197D098E099F09683E734073
:1003000081059105A8F321E0821A9108A108B1089E
:1003100088EEC80E83E0D81EE11CF11C8114910404
:10032000A104B10429F7FF90EF90DF90CF90BF9028
:10033000AF909F908F9008952FB7F8946091B2017D
:100340007091B3018091B4019091B5012FBF0895D0
:10035000AF92BF92CF92DF92EF92FF920F931F93D3
:10036000CF93DF936C017B018B01040F151FEB0111
:100370005E01AE18BF08C017D10759F06991D601C8
:10038000ED91FC910190F081E02DC6010995892B3A
:1003900079F7C501DF91CF911F910F91FF90EF90F9
:1003A000DF90CF90BF90AF900895FC01538D448DA6
:1003B000252F30E0842F90E0821B930B541710F010
:1003C000CF96089501970895FC01918D828D98171D
:1003D00061F0A28DAE0FBF2FB11D5D968C91928DF5
:1003E0009F5F9F73928F90E008958FEF9FEF089526
:1003F000FC01918D828D981731F0828DE80FF11DEF
:10040000858D90E008958FEF9FEF0895FC01918D09
:10041000228D892F90E0805C9F4F821B91098F7302
:10042000992708958EEE91E00E94060221E0892B23
:1004300009F420E0822F089580E090E0892B29F0D4
:100440000E94120281110C9400000895FC01A48DF9
:10045000A80FB92FB11DA35ABF4F2C91848D90E0E6
:1004600001968F739927848FA689B7892C93A089C9
:10047000B1898C91837080648C93938D848D981353
:1004800006C00288F389E02D80818F7D80830895E6
:10049000EF92FF920F931F93CF93DF93EC0181E0D4
:1004A000888F9B8D8C8D98131AC0E889F98980817B
:1004B00085FF15C09FB7F894EE89FF896083E889AE
:1004C000F98980818370806480839FBF81E090E0A0
:1004D000DF91CF911F910F91FF90EF900895F62E2D
:1004E0000B8D10E00F5F1F4F0F731127E02E8C8DC7
:1004F0008E110CC00FB607FCFACFE889F98980810C
:1005000085FFF5CFCE010E942602F1CFEB8DEC0FD7
:10051000FD2FF11DE35AFF4FF0829FB7F8940B8F28
:10052000EA89FB8980818062CFCFCF93DF93EC0192
:10053000888D8823B9F0AA89BB89E889F9898C91CB
:1005400085FD03C0808186FD0DC00FB607FCF7CF87
:100550008C9185FFF2CF808185FFEDCFCE010E9487
:100560002602E9CFDF91CF910895CF92DF92EF92EB
:10057000FF92CF93DF93EC01603282E07807CCF5F5
:10058000653B710514F064EB70E0898128E830E088
:10059000281B310987FD3395220F331F220F331F8C
:1005A0006901330FEE08FF088A8128E532E0281B35
:1005B000310987FD3395220F331F220F331F032E7E
:1005C000000C440B550B2C193D094E095F09DB014A
:1005D00077FF02C0B0E0A0E00E94220F24EB30E0E1
:1005E00040E050E00E94F80EC20ED31EE41EF51E3D
:1005F000B601E881EC3070F5298188E890E0821B33
:10060000910927FD9395880F991F880F991F6817E7
:1006100079077CF02A8188E592E0821B910927FD09
:100620009395880F991F880F991F681779070CF405
:10063000CB010297880F991F4FB7F8942E2F30E007
:10064000F901EE0FFF1FE20FF31FEC5EFE4F9283E6
:1006500081834FBFDF91CF91FF90EF90DF90CF90DC
:100660000895DF92EF92FF920F931F93CF93DF9342
:10067000EC01D62E7A01890188818C3008F067C0A0
:1006800061E08D2D0E9409018881282F30E0F90159
:10069000EE0FFF1FE20FF31FEC5EFE4F9D2D9F73C9
:1006A0006081607C692B608320E232E02E193F0973
:1006B00037FF02C02D5F3F4F35952795359527951C
:1006C000298320E639E0201B310B37FF02C02D5F64
:1006D0003F4F35952795359527952A832CE0622F36
:1006E0000E945B0F829FB001112430E020E0AB013B
:1006F000420F531FFA01EE0FFF1FE40FF51FEC5ED0
:10070000FE4F908196FD16C02F5F3F4F2C30310574
:1007100071F781110FC01092800082E080938100F8
:100720001092850010928400B19A80916F008260CF
:1007300080936F00E8818E2F90E0FC01EE0FFF1F89
:10074000E80FF91FEC5EFE4F808180648083888112
:10075000DF91CF911F910F91FF90EF90DF9008955F
:100760008EBD00000DB407FEFDCF8EB50895CF936A
:10077000DF93CAEBD1E02E853F854C855D856EE029
:1007800070E080EB92E00E9431032A893B8948891E
:1007900059896FE070E08DEA92E00E9431032E8962
:1007A0003F894C895D8960E170E08AEA92E00E94AD
:1007B00031032A8D3B8D488D598D61E170E087EAC8
:1007C00092E00E9431032E8D3F8D4C8D5D8D62E154
:1007D00070E084EA92E00E9431032AA13BA148A183
:1007E00059A163E170E081EA92E00E9431032EA1F9
:1007F0003FA14CA15DA164E070E08EE992E00E940F
:1008000031032AA53BA548A559A565E070E08BE911
:1008100092E00E9431032EA53FA54CA55DA566E0A0
:1008200070E088E992E00E9431032AA93BA948A917
:1008300059A967E070E085E992E0DF91CF910C94CF
:100840003103FF920F931F93CF93DF930AEB11E0D5
:10085000D0E0C0E0F801F1908F01CE010E94E20EDD
:10086000F81621F06F2DCE010E94EA0E2196C433B6
:10087000D10581F761E070E080E090E0DF91CF91F9
:100880001F910F91FF900C946A010F931F93009199
:10089000B7021091B8022091B9023091BA0240E03B
:1008A00052E16AE770E080E0041715072607370772
:1008B00040F476956795579547958F5F8630A1F7F9
:1008C00087E0982F906A9695809581709CBD8DBD2C
:1008D00080E01F910F910C94F200CF93C82F0E94DB
:1008E00045048C2F80620E94B0038093BB02CF919D
:1008F0000C940601CF93C82F0E9445048C2F0E94B0
:10090000B0038093BB028FEF0E94B003C82F0E94F8
:1009100006018C2FCF910895CF93DF93EC0187E1EF
:100920000E947A0480FD0FC088818F3F51F08FEFC5
:100930000E946D048091BB0290E095958795877029
:10094000888381E001C080E0DF91CF910895FF921C
:100950000F931F93CF93DF93C82FF62E072F142FDB
:100960000E9445048C2F80620E94B0038093BB02DA
:10097000CF2DD02F115020F089910E94B003FACFD3
:10098000DF91CF911F910F91FF900C9406010E946F
:10099000450480E50E94B0038093BB0283E70E9478
:1009A000B0030C940601CF93DF93D82FC62F0E947B
:1009B00045048D2F80620E94B0038093BB028C2F70
:1009C0000E94B003DF91CF910C940601CF92DF9289
:1009D000EF92FF920F931F93CF93DF937C0180914F
:1009E000C702811117C0D091BC02C62FD61708F4D8
:1009F000CD2FDC1B0E94450480EA0E94B003809347
:100A0000BB028701C15060F0F80181918F010E9403
:100A1000B003F8CFC62F613208F0C0E2D0E0EACFD1
:100A2000D15020F080E00E94B003FACF0E9406016E
:100A300081E00E94E9000E949C016B017C018FEF24
:100A40000E946D048091BB028073C1F40E949C01DE
:100A50006C197D098E099F09603671058105910524
:100A600070F381E08093C80280E0DF91CF911F9105
:100A70000F91FF90EF90DF90CF90089580E00E945B
:100A8000E90060E787E00E94D3048091BB0284FF05
:100A900004C081EE0E946D04E7CF81E0E6CF80E0E4
:100AA0000E94E9008091C9029091CA0282309105AA
:100AB00038F0880F991F880F991F05970197F1F754
:100AC0008091C502882319F081EE0E946D04609127
:100AD000C2026E7F6093C20280E00E94D30482E073
:100AE0000E947A04E8ECF0E0E49161E070E001C07B
:100AF000660FEA95EAF7682B82E00C94D304EF9234
:100B0000FF920F931F93CF93DF937C018091C702D5
:100B1000811118C0D091BC02C62FD61708F4CD2F72
:100B2000DC1B0E94450481E60E94B0038093BB0257
:100B30008701C15068F08FEF0E94B003F8018193E4
:100B40008F01F7CFC62F613208F0C0E2D0E0E9CFC5
:100B5000D15020F08FEF0E94B003FACF0E9406011F
:100B600060E487E0DF91CF911F910F91FF90EF90AC
:100B70000C94D3046091C20261FD0AC0626060936C
:100B8000C20280E00E94D3048BE19EE40197F1F75A
:100B900008950E94BA056091C20261606093C2022A
:100BA00080E00E94D30460E787E00E94D30481E0E4
:100BB0000E94E9008091C402882339F04091C60266
:100BC0006DEB72E08AE00C94A70482E00E947A0444
:100BD000E8ECF0E0E49121E030E001C0220FEA957A
:100BE000EAF72095622F682382E00E94D3041092D6
:100BF000C4020895CF93DF93EC0186E00E947A044B
:100C0000877D2297E1F045E550E060E070E0409399
:100C1000C9025093CA026093CB027093CC02C0E029
:100C2000C82B6C2F86E00E94D30486E00E947A04D1
:100C300091E0C81390E0892FDF91CF9108954BE99F
:100C400050E060E070E04093C9025093CA026093A4
:100C5000CB027093CC02C0E2E3CFCF93DF93CDB74A
:100C6000DEB728970FB6F894DEBF0FBECDBF29833D
:100C70003A834B835C836D837E838F839887E3EC19
:100C8000F0E084914091C602BE016F5F7F4F0E94E9
:100C9000A70482E00E947A04E9ECF0E0E49161E0CC
:100CA00070E001C0660FEA95EAF7682B82E00E94C7
:100CB000D30428960FB6F894DEBF0FBECDBFDF91E8
:100CC000CF9108951F920F920FB60F9211242F9378
:100CD0003F938F939F93AF93BF938091B201909175
:100CE000B301A091B401B091B5013091B10123E0FD
:100CF000230F2D3758F50196A11DB11D2093B10189
:100D00008093B2019093B301A093B401B093B50165
:100D10008091B6019091B701A091B801B091B9014D
:100D20000196A11DB11D8093B6019093B701A093C8
:100D3000B801B093B901BF91AF919F918F913F914D
:100D40002F910F900FBE0F901F90189526E8230F3C
:100D50000296A11DB11DD2CF1F920F920FB60F9216
:100D600011242F933F934F935F936F937F938F93B0
:100D70009F93AF93BF93EF93FF938EEE91E00E940A
:100D80002602FF91EF91BF91AF919F918F917F913B
:100D90006F915F914F913F912F910F900FBE0F90E8
:100DA0001F9018951F920F920FB60F9211242F9338
:100DB0008F939F93EF93FF93E091FE01F091FF01DA
:100DC0008081E0910402F091050282FD1BC09081B8
:100DD000809107028F5F8F7320910802821741F084
:100DE000E0910702F0E0E251FE4F958F80930702F9
:100DF000FF91EF919F918F912F910F900FBE0F90C8
:100E00001F9018958081F4CF1F920F920FB60F920A
:100E100011242F933F934F935F936F937F938F93FF
:100E20009F93AF93BF93CF93DF93EF93FF93809103
:100E30001201C0911301D0E087FF24C010928500F9
:100E400010928400809112018F5F80931201809133
:100E50001201082E000C990B8C179D0724F4809129
:100E600012018C30C4F18091840090918500049629
:100E700080349C4908F47AC0809184009091850068
:100E8000049676C080911201082E000C990B8C17E5
:100E90009D07C4F6E09112018E2FEE0F990BFC0115
:100EA000EE0FFF1FE80FF91FEC5EFE4F808186FFFB
:100EB000C9CFE09112018E2FEE0F990BFC01EE0FBE
:100EC000FF1FE80FF91FEC5EFE4F808160E08F731B
:100ED0000E94BB00B7CF2091840030918500E09143
:100EE00012018E2FEE0F990BFC01EE0FFF1FE80F82
:100EF000F91FEC5EFE4F81819281820F931F9093C8
:100F0000890080938800E09112018E2FEE0F990BDB
:100F1000FC01EE0FFF1FE80FF91FEC5EFE4F808112
:100F200086FF11C0E09112018E2FEE0F990BFC018C
:100F3000EE0FFF1FE80FF91FEC5EFE4F808161E0AE
:100F40008F730E94BB00FF91EF91DF91CF91BF9112
:100F5000AF919F918F917F916F915F914F913F9151
:100F60002F910F900FBE0F901F90189580E49CE971
:100F700090938900809388008FEF80931201E3CFD4
:100F8000FC01909113019C3098F481E0890F8093CB
:100F900013019083892F90E0FC01EE0FFF1FE80FF3
:100FA000F91FEC5EFE4F88EB9BE0928381830895EE
:100FB0008FEF808308951092F1011092F00188EE76
:100FC00093E0A0E0B0E08093F2019093F301A0934E
:100FD000F401B093F50184E091E09093EF018093E8
:100FE000EE0185EC90E09093FB018093FA0184EC94
:100FF00090E09093FD018093FC0180EC90E0909351
:10100000FF018093FE0181EC90E0909301028093B8
:10101000000282EC90E0909303028093020286EC3F
:1010200090E09093050280930402109207021092C0
:1010300008021092090210920A02ABE8B2E090E0B6
:1010400080E021E2E1E0F0E08630910510F4F0E08C
:10105000E0E0AC01425F5F4FE40FF51F20935700C3
:10106000E491ED9301968930910561F789E08093D1
:10107000B5028AE08093B60280E896E9A8E9B0E07C
:101080008093B7029093B802A093B902B093BA02CA
:1010900080E28093BC021092C3021092C40285E0E9
:1010A0008093C60281E08093C70285E090E0A0E0D3
:1010B000B0E08093CD029093CE02A093CF02B09384
:1010C000D00284E992E09093B4028093B30210922C
:1010D000BD0280EB92E00E94C0078DEA92E00E9480
:1010E000C0078AEA92E00E94C00787EA92E00E9465
:1010F000C00784EA92E00E94C00781EA92E00E9461
:10110000C0078EE992E00E94C0078BE992E00E943E
:10111000C00788E992E00E94C00785E992E00C943C
:10112000C007CF93DF93CDB7DEB761970FB6F894C2
:10113000DEBF0FBECDBF789484B5826084BD84B518
:10114000816084BD85B5826085BD85B5816085BDC2
:1011500080916E00816080936E001092810080917A
:101160008100826080938100809181008160809302
:101170008100809180008160809380008091B10027
:1011800084608093B1008091B00081608093B00052
:1011900080917A00846080937A0080917A008260E6
:1011A00080937A0080917A00816080937A008091A8
:1011B0007A00806880937A001092C100E091FE016D
:1011C000F091FF0182E08083E091FA01F091FB0150
:1011D0001082E091FC01F091FD0180E1808310928A
:1011E0000602E0910202F091030286E08083E09122
:1011F0000002F0910102808180618083E091000211
:10120000F0910102808188608083E0910002F0917A
:101210000102808180688083E0910002F0910102E8
:1012200080818F7D808360E084E10E94090162E01B
:1012300083E00E94090161E082E00E940901BAEBAB
:10124000EB2EB1E0FB2E10E000E0C8010E94E20EA0
:10125000D7018D937D010F5F1F4F04331105A9F74F
:1012600061E070E080E090E00E946A010E94B703B4
:1012700000E910E0E4EAEE2EE0E0FE2EF0E2CF2EF0
:10128000A5E0BA2EDFB6F89480913801811125C00F
:10129000F8018491F7019491E82FF0E0EE0FFF1F21
:1012A000EE58FF4FA591B4918C91982321F461E001
:1012B0008AE00E94BB0061E08AE00E9409018CB5CF
:1012C00080618CBD8CB580648CBD61E08DE00E9436
:1012D000090161E08BE00E940901809138018F5F74
:1012E00080933801DFBE8091B5028F3F09F4D8C0EA
:1012F0009091B6029F3F09F4D3C0891741F061E095
:101300000E94090161E08091B6020E94090180E01B
:101310000E94E90081E00E94F20065E070E080E058
:1013200090E00E946A016FE584E00E94D30490E09F
:1013300080E00E94FA058DE10E947A04D82E0E9476
:10134000C7048DE10E947A0491E0D81290E0909356
:10135000C302882341F0D81202C00E94C70460E093
:101360008DE10E94D3041092C50260E08CE10E94DE
:10137000D3041092C7026FE381E00E94D30463E0BC
:1013800082E00E94D304C092BC0261E1D62E60913B
:10139000BC028D2D0E94D304D394F7E1DF12F7CF66
:1013A00063E083E00E94D304B092C6026CE485E05F
:1013B0000E94D30460E787E00E94D30482EE0E947B
:1013C0006D0481EE0E946D046CE080E00E94D30405
:1013D00080E00E947A048093C2020E94BA05809144
:1013E000C2028E3009F05CC060E082E00E94BB0067
:1013F000E1EBF0E08491EDE9F0E01491E9E8F0E050
:10140000F490F11052C087E689878BE28A871B86A9
:101410001C861D861E861F86188A4091C602BE0144
:10142000675F7F4F8AE00E94A7044091C602BE0119
:10143000675F7F4F80E10E94A70424EA32E840E022
:1014400050E060E070E080E090E00E942D066FE6E2
:1014500085E00E94D30486E00E947A04682F6760CA
:1014600086E00E94D30482E090E00E94FA050E9488
:10147000C90581E0809373010FEF80917301813082
:1014800009F00AC110917201111162C0EEE3F1E09E
:1014900094E3DF011D929A95E9F780937201EDCFF5
:1014A00061E082E00E94BB00EDCE81110E949200BB
:1014B000EF2DF0E0EE0FFF1FE859FF4FA591B4911B
:1014C000EC91E12309F49FCF6FE381E00E94D30404
:1014D0000091C0011091C10109831A831B821C82F3
:1014E0001D821E821F8218864091C602BE016F5F58
:1014F0007F4F8AE00E94A7044091C602BE016F5F41
:101500007F4F80E10E94A7048090BE019090BF01B0
:10151000940140E050E060E070E080E090E00E94E4
:101520002D066091C2016D3708F06DE785E00E94DD
:10153000D30486E00E947A04682F676086E00E94E8
:10154000D30482E090E00E94FA050E94C90594CF7E
:10155000113009F08FC00E949C0120913901C09088
:101560003A01D0903B01E0903C01F0903D01AB018D
:10157000BC014C195D096E097F09483C51056105A4
:10158000710570F0822F8127809339010E949C01A0
:1015900060933A0170933B0180933C0190933D012D
:1015A0008091390161E0811160E082E00E94BB001E
:1015B000098BCE0141960E948C04882309F45DCFEB
:1015C00064E38EE391E00E947F05809146018823C9
:1015D00009F453CF80914601893708F04ECF8091AE
:1015E000440190914501892B09F447CF8091440132
:1015F000909145018091420190914301892B09F41A
:101600003CCF809142019091430180913E019091A5
:101610003F018031974208F430CF80913E01909194
:101620003F018091C401811123C080913E019091BE
:101630003F019093BB018093BA0182E08093C40183
:10164000809146018093C2018091440190914501AF
:101650009093C1018093C001809142019091430118
:101660009093BF018093BE010E94210482E015CFB8
:1016700081E0E4CF61E082E00E94BB000E944F0560
:1016800064E38AEB91E00E94E60465E070E080E0AC
:1016900090E00E946A01F1CE03E010E061E082E098
:1016A0000E94BB0068EC70E080E090E00E946A015C
:1016B00060E082E00E94BB0068EC70E080E090E0B7
:1016C0000E946A010150110949F7C12CD12C760101
:1016D000CA940FEF8824839434E0932E43E0742E51
:1016E00090E0A92E90E0B92E86E4682E60927C00EE
:1016F00080917A00806480937A0080917A0086FDE0
:10170000FCCF9091780080917900892798278927CC
:101710009093B0018093AF018091AE018111F3C02D
:101720008091AD01811117C10E949C016093A901B4
:101730007093AA018093AB019093AC018092AD01AC
:101740000E94C905098BCE0141960E948C04882312
:10175000D1F16CE08DE991E00E947F0580919E01BE
:1017600080919E0180919F0180919F018091A001B5
:101770008091A0018091A1018091A1018091A2019D
:101780008091A2018091A3018091A3018091A40185
:101790008091A4018091A5018091A5018091A6016D
:1017A0008091A6018091A7018091A7018CE0EDE9CD
:1017B000F1E0A1E9B1E001900D928A95E1F7809105
:1017C00091018093AE012091920130E0A4EBB0E052
:1017D0000E944C0FA70196010E94F80EB90180EB00
:1017E00092E00E94B5022091930130E0A4EBB0E0BA
:1017F0000E944C0FA70196010E94F80EB9018DEAD4
:1018000092E00E94B5022091940130E0A4EBB0E098
:101810000E944C0FA70196010E94F80EB9018AEAB6
:1018200092E00E94B5022091950130E0A4EBB0E077
:101830000E944C0FA70196010E94F80EB90187EA99
:1018400092E00E94B5022091960130E0A4EBB0E056
:101850000E944C0FA70196010E94F80EB90184EA7C
:1018600092E00E94B5022091970130E0A4EBB0E035
:101870000E944C0FA70196010E94F80EB90181EA5F
:1018800092E00E94B5022091980130E0A4EBB0E014
:101890000E944C0FA70196010E94F80EB9018EE933
:1018A00092E00E94B5022091990130E0A4EBB0E0F3
:1018B0000E944C0FA70196010E94F80EB9018BE916
:1018C00092E00E94B50220919A0130E0A4EBB0E0D2
:1018D0000E944C0FA70196010E94F80EB90188E9F9
:1018E00092E00E94B50220919B0130E0A4EBB0E0B1
:1018F0000E944C0FA70196010E94F80EB90185E9DC
:1019000092E00E94B5021091AE01113009F0A5C01D
:101910008091900181115CC0E8E7F1E088E1DF018E
:101920001D928A95E9F70E949C016093740170935F
:101930007501809376019093770110939001A11423
:10194000B10409F4D3CE0E941202882309F4CCCE4C
:101950000E940000C5CE8130D1F40E949C012091EC
:10196000A9013091AA014091AB015091AC01621BD9
:10197000730B840B950B683E73408105910508F449
:10198000DFCE0E949C0182E08093AD01D9CE8230EF
:1019900009F0D6CE0E944F0562E08FEA91E00E94E6
:1019A000E6040E949C012091A9013091AA01409176
:1019B000AB015091AC01621B730B840B950B643F20
:1019C00071408105910508F4BBCE1092AD01B8CEEF
:1019D000813009F0B4CF82E0809391010E944F05DD
:1019E0006CE081E991E00E94E60462E070E080E052
:1019F00090E00E946A010E94C905098BCE014196C0
:101A00000E948C04882351F068E188E791E00E94ED
:101A10007F0580918B0181117092AE0162E070E0D0
:101A200080E090E00E946A010E949C012091740174
:101A3000309175014091760150917701621B730BD3
:101A4000840B950B683B7B408105910508F477CFAB
:101A50001092AE011092900172CF133009F093C131
:101A600020917C0130E0AAE3B7E00E944C0FA7016F
:101A700096010E94F80E2A5D3D4F4F4F5F4F309305
:101A8000C7012093C60120917D0130E0AAE3B7E0B1
:101A90000E944C0FA70196010E94F80E2A5D3D4F4F
:101AA0004F4F5F4F3093C9012093C80120917E01B1
:101AB00030E0AAE3B7E00E944C0FA70196010E9414
:101AC000F80E2A5D3D4F4F4F5F4F3093CB0120936F
:101AD000CA0120917F0130E0AAE3B7E00E944C0FD9
:101AE000A70196010E94F80E2A5D3D4F4F4F5F4FB0
:101AF0003093CD012093CC012091800130E0AAE306
:101B0000B7E00E944C0FA70196010E94F80E2A5DD3
:101B10003D4F4F4F5F4F3093CF012093CE01209127
:101B2000810130E0AAE3B7E00E944C0FA7019601C3
:101B30000E94F80E2A5D3D4F4F4F5F4F3093D10109
:101B40002093D0012091820130E0AAE3B7E00E9407
:101B50004C0FA70196010E94F80E2A5D3D4F4F4F92
:101B60005F4F3093D3012093D2012091830130E065
:101B7000AAE3B7E00E944C0FA70196010E94F80E5D
:101B80002A5D3D4F4F4F5F4F3093D5012093D401D5
:101B90002091840130E0AAE3B7E00E944C0FA70136
:101BA00096010E94F80E2A5D3D4F4F4F5F4F3093D4
:101BB000D7012093D6012091850130E0AAE3B7E058
:101BC0000E944C0FA70196010E94F80E2A5D3D4F1E
:101BD0004F4F5F4F3093D9012093D8012091860158
:101BE00030E0AAE3B7E00E944C0FA70196010E94E3
:101BF000F80E2A5D3D4F4F4F5F4F3093DB0120932E
:101C0000DA012091870130E0AAE3B7E00E944C0F8F
:101C1000A70196010E94F80E2A5D3D4F4F4F5F4F7E
:101C20003093DD012093DC012091880130E0AAE3AC
:101C3000B7E00E944C0FA70196010E94F80E2A5DA2
:101C40003D4F4F4F5F4F3093DF012093DE012091D6
:101C5000890130E0AAE3B7E00E944C0FA70196018A
:101C60000E94F80E2A5D3D4F4F4F5F4F3093E101C8
:101C70002093E00120918A0130E0AAE3B7E00E94BE
:101C80004C0FA70196010E94F80E2A5D3D4F4F4F61
:101C90005F4F3093E3012093E20120918B0130E00C
:101CA000AAE3B7E00E944C0FA70196010E94F80E2C
:101CB0002A5D3D4F4F4F5F4F3093E5012093E40184
:101CC00020918C0130E0AAE3B7E00E944C0FA701FD
:101CD00096010E94F80E2A5D3D4F4F4F5F4F3093A3
:101CE000E7012093E60120918D0130E0AAE3B7E0FF
:101CF0000E944C0FA70196010E94F80E2A5D3D4FED
:101D00004F4F5F4F3093E9012093E80120918E01FE
:101D100030E0AAE3B7E00E944C0FA70196010E94B1
:101D2000F80E2A5D3D4F4F4F5F4F3093EB012093EC
:101D3000EA0120918F0130E0AAE3B7E00E944C0F46
:101D4000A70196010E94F80E2A5D3D4F4F4F5F4F4D
:101D50003093ED012093EC010E9421040E94B7030F
:101D6000909278010E944F050E949C01609374013B
:101D70007093750180937601909377011092900192
:101D80009092AE01DCCD143009F0D9CD68E188E73E
:101D900091E00E94E6040E949C0120917401309120
:101DA00075014091760150917701621B730B840B92
:101DB000950B683E73408105910508F4C0CD1092E3
:101DC000AE01BDCDF999FECF92BD81BDF89A99279C
:101DD00080B50895262FF999FECF1FBA92BD81BD17
:101DE00020BD0FB6F894FA9AF99A0FBE019608959D
:101DF000052E97FB1EF400940E940F0F57FD07D08D
:101E00000E942A0F07FC03D04EF40C940F0F50953C
:101E10004095309521953F4F4F4F5F4F08959095D6
:101E20008095709561957F4F8F4F9F4F08950E94C9
:101E30004C0FA59F900DB49F900DA49F800D911DF8
:101E400011240895B7FF0C94170F0E94170F821BDF
:101E5000930B0895A1E21A2EAA1BBB1BFD010DC016
:101E6000AA1FBB1FEE1FFF1FA217B307E407F5074A
:101E700020F0A21BB30BE40BF50B661F771F881F26
:101E8000991F1A9469F760957095809590959B01BC
:101E9000AC01BD01CF010895A29FB001B39FC00165
:101EA000A39F700D811D1124911DB29F700D811D86
:101EB0001124911D0895991B79E004C0991F96176C
:101EC00008F0961B881F7A95C9F780950895EE0F44
:0E1ED000FF1F0590F491E02D0994F894FFCFC8
:101EDE00000000004802A801D50195020602E401A7
:021EEE00F801F9
:00000001FF
